{
  "contractName": "Marketplace",
  "abi": [
    {
      "constant": false,
      "inputs": [],
      "name": "unpause",
      "outputs": [],
      "payable": false,
      "stateMutability": "nonpayable",
      "type": "function"
    },
    {
      "constant": true,
      "inputs": [
        {
          "name": "account",
          "type": "address"
        }
      ],
      "name": "isPauser",
      "outputs": [
        {
          "name": "",
          "type": "bool"
        }
      ],
      "payable": false,
      "stateMutability": "view",
      "type": "function"
    },
    {
      "constant": true,
      "inputs": [],
      "name": "paused",
      "outputs": [
        {
          "name": "",
          "type": "bool"
        }
      ],
      "payable": false,
      "stateMutability": "view",
      "type": "function"
    },
    {
      "constant": true,
      "inputs": [],
      "name": "totalServices",
      "outputs": [
        {
          "name": "",
          "type": "uint256"
        }
      ],
      "payable": false,
      "stateMutability": "view",
      "type": "function"
    },
    {
      "constant": false,
      "inputs": [],
      "name": "renouncePauser",
      "outputs": [],
      "payable": false,
      "stateMutability": "nonpayable",
      "type": "function"
    },
    {
      "constant": false,
      "inputs": [],
      "name": "renounceOwnership",
      "outputs": [],
      "payable": false,
      "stateMutability": "nonpayable",
      "type": "function"
    },
    {
      "constant": false,
      "inputs": [
        {
          "name": "account",
          "type": "address"
        }
      ],
      "name": "addPauser",
      "outputs": [],
      "payable": false,
      "stateMutability": "nonpayable",
      "type": "function"
    },
    {
      "constant": false,
      "inputs": [],
      "name": "pause",
      "outputs": [],
      "payable": false,
      "stateMutability": "nonpayable",
      "type": "function"
    },
    {
      "constant": true,
      "inputs": [],
      "name": "owner",
      "outputs": [
        {
          "name": "",
          "type": "address"
        }
      ],
      "payable": false,
      "stateMutability": "view",
      "type": "function"
    },
    {
      "constant": true,
      "inputs": [],
      "name": "isOwner",
      "outputs": [
        {
          "name": "",
          "type": "bool"
        }
      ],
      "payable": false,
      "stateMutability": "view",
      "type": "function"
    },
    {
      "constant": true,
      "inputs": [
        {
          "name": "",
          "type": "uint256"
        }
      ],
      "name": "services",
      "outputs": [
        {
          "name": "",
          "type": "bytes32"
        }
      ],
      "payable": false,
      "stateMutability": "view",
      "type": "function"
    },
    {
      "constant": true,
      "inputs": [
        {
          "name": "",
          "type": "bytes32"
        }
      ],
      "name": "serviceContracts",
      "outputs": [
        {
          "name": "",
          "type": "address"
        }
      ],
      "payable": false,
      "stateMutability": "view",
      "type": "function"
    },
    {
      "constant": false,
      "inputs": [
        {
          "name": "newOwner",
          "type": "address"
        }
      ],
      "name": "transferOwnership",
      "outputs": [],
      "payable": false,
      "stateMutability": "nonpayable",
      "type": "function"
    },
    {
      "inputs": [],
      "payable": false,
      "stateMutability": "nonpayable",
      "type": "constructor"
    },
    {
      "anonymous": false,
      "inputs": [
        {
          "indexed": false,
          "name": "sid",
          "type": "bytes32"
        },
        {
          "indexed": false,
          "name": "serviceAddress",
          "type": "address"
        }
      ],
      "name": "ServiceCreated",
      "type": "event"
    },
    {
      "anonymous": false,
      "inputs": [
        {
          "indexed": false,
          "name": "account",
          "type": "address"
        }
      ],
      "name": "Paused",
      "type": "event"
    },
    {
      "anonymous": false,
      "inputs": [
        {
          "indexed": false,
          "name": "account",
          "type": "address"
        }
      ],
      "name": "Unpaused",
      "type": "event"
    },
    {
      "anonymous": false,
      "inputs": [
        {
          "indexed": true,
          "name": "account",
          "type": "address"
        }
      ],
      "name": "PauserAdded",
      "type": "event"
    },
    {
      "anonymous": false,
      "inputs": [
        {
          "indexed": true,
          "name": "account",
          "type": "address"
        }
      ],
      "name": "PauserRemoved",
      "type": "event"
    },
    {
      "anonymous": false,
      "inputs": [
        {
          "indexed": true,
          "name": "previousOwner",
          "type": "address"
        },
        {
          "indexed": true,
          "name": "newOwner",
          "type": "address"
        }
      ],
      "name": "OwnershipTransferred",
      "type": "event"
    },
    {
      "constant": false,
      "inputs": [
        {
          "name": "sid",
          "type": "bytes32"
        }
      ],
      "name": "createService",
      "outputs": [
        {
          "name": "",
          "type": "address"
        }
      ],
      "payable": false,
      "stateMutability": "nonpayable",
      "type": "function"
    }
  ],
  "bytecode": "0x608060405234801561001057600080fd5b50336000806101000a81548173ffffffffffffffffffffffffffffffffffffffff021916908373ffffffffffffffffffffffffffffffffffffffff1602179055506000809054906101000a900473ffffffffffffffffffffffffffffffffffffffff1673ffffffffffffffffffffffffffffffffffffffff16600073ffffffffffffffffffffffffffffffffffffffff167f8be0079c531659141344cd1fd0a4f28419497f9722a3daafe3b4186f6b6457e060405160405180910390a36100e533610105640100000000026401000000009004565b6000600260006101000a81548160ff0219169083151502179055506102bf565b61012681600161016c64010000000002610d88179091906401000000009004565b8073ffffffffffffffffffffffffffffffffffffffff167f6719d08c1888103bea251a4ed56406bd0c3e69723c8a1686e017e7bbe159b6f860405160405180910390a250565b600073ffffffffffffffffffffffffffffffffffffffff168173ffffffffffffffffffffffffffffffffffffffff16141515156101a857600080fd5b6101c1828261022b640100000000026401000000009004565b1515156101cd57600080fd5b60018260000160008373ffffffffffffffffffffffffffffffffffffffff1673ffffffffffffffffffffffffffffffffffffffff16815260200190815260200160002060006101000a81548160ff0219169083151502179055505050565b60008073ffffffffffffffffffffffffffffffffffffffff168273ffffffffffffffffffffffffffffffffffffffff161415151561026857600080fd5b8260000160008373ffffffffffffffffffffffffffffffffffffffff1673ffffffffffffffffffffffffffffffffffffffff16815260200190815260200160002060009054906101000a900460ff16905092915050565b6124df806102ce6000396000f300608060405260043610620000df576000357c0100000000000000000000000000000000000000000000000000000000900463ffffffff1680633f4ba83a14620000e457806346fbf68e14620000fe5780635c975abb146200015c5780635d03323c146200018e5780636301ac8f14620002025780636ef8d66d1462000230578063715018a6146200024a57806382dc1ec414620002645780638456cb5914620002aa5780638da5cb5b14620002c45780638f32d59b146200031e578063c22c4f431462000350578063c56c6d11146200039c578063f2fde38b1462000410575b600080fd5b348015620000f157600080fd5b50620000fc62000456565b005b3480156200010b57600080fd5b5062000142600480360381019080803573ffffffffffffffffffffffffffffffffffffffff16906020019092919050505062000509565b604051808215151515815260200191505060405180910390f35b3480156200016957600080fd5b506200017462000528565b604051808215151515815260200191505060405180910390f35b3480156200019b57600080fd5b50620001c060048036038101908080356000191690602001909291905050506200053f565b604051808273ffffffffffffffffffffffffffffffffffffffff1673ffffffffffffffffffffffffffffffffffffffff16815260200191505060405180910390f35b3480156200020f57600080fd5b506200021a620007be565b6040518082815260200191505060405180910390f35b3480156200023d57600080fd5b5062000248620007c4565b005b3480156200025757600080fd5b5062000262620007d1565b005b3480156200027157600080fd5b50620002a8600480360381019080803573ffffffffffffffffffffffffffffffffffffffff169060200190929190505050620008a6565b005b348015620002b757600080fd5b50620002c2620008cb565b005b348015620002d157600080fd5b50620002dc6200097f565b604051808273ffffffffffffffffffffffffffffffffffffffff1673ffffffffffffffffffffffffffffffffffffffff16815260200191505060405180910390f35b3480156200032b57600080fd5b5062000336620009a8565b604051808215151515815260200191505060405180910390f35b3480156200035d57600080fd5b506200037e60048036038101908080359060200190929190505050620009ff565b60405180826000191660001916815260200191505060405180910390f35b348015620003a957600080fd5b50620003ce600480360381019080803560001916906020019092919050505062000a23565b604051808273ffffffffffffffffffffffffffffffffffffffff1673ffffffffffffffffffffffffffffffffffffffff16815260200191505060405180910390f35b3480156200041d57600080fd5b5062000454600480360381019080803573ffffffffffffffffffffffffffffffffffffffff16906020019092919050505062000a56565b005b620004613362000509565b15156200046d57600080fd5b600260009054906101000a900460ff1615156200048957600080fd5b6000600260006101000a81548160ff0219169083151502179055507f5db9ee0a495bf2e6ff9c91a7834c1ba4fdd244a5e8aa4e537bd38aeae4b073aa33604051808273ffffffffffffffffffffffffffffffffffffffff1673ffffffffffffffffffffffffffffffffffffffff16815260200191505060405180910390a1565b60006200052182600162000a7a90919063ffffffff16565b9050919050565b6000600260009054906101000a900460ff16905090565b6000600260009054906101000a900460ff161515156200055e57600080fd5b620005ba60036000846000191660001916815260200190815260200160002060009054906101000a900473ffffffffffffffffffffffffffffffffffffffff1673ffffffffffffffffffffffffffffffffffffffff1662000b0f565b15620005c657620007b9565b3382620005d262000e3c565b808373ffffffffffffffffffffffffffffffffffffffff1673ffffffffffffffffffffffffffffffffffffffff168152602001826000191660001916815260200192505050604051809103906000f08015801562000634573d6000803e3d6000fd5b5060036000846000191660001916815260200190815260200160002060006101000a81548173ffffffffffffffffffffffffffffffffffffffff021916908373ffffffffffffffffffffffffffffffffffffffff16021790555060048290806001815401808255809150509060018203906000526020600020016000909192909190915090600019169055506001600554016005819055507f08a12c03383a5318df698bc9ac078681c15266f759745be5694da94fe5c30a6f8260036000856000191660001916815260200190815260200160002060009054906101000a900473ffffffffffffffffffffffffffffffffffffffff166040518083600019166000191681526020018273ffffffffffffffffffffffffffffffffffffffff1673ffffffffffffffffffffffffffffffffffffffff1681526020019250505060405180910390a160036000836000191660001916815260200190815260200160002060009054906101000a900473ffffffffffffffffffffffffffffffffffffffff1690505b919050565b60055481565b620007cf3362000b22565b565b620007db620009a8565b1515620007e757600080fd5b600073ffffffffffffffffffffffffffffffffffffffff166000809054906101000a900473ffffffffffffffffffffffffffffffffffffffff1673ffffffffffffffffffffffffffffffffffffffff167f8be0079c531659141344cd1fd0a4f28419497f9722a3daafe3b4186f6b6457e060405160405180910390a360008060006101000a81548173ffffffffffffffffffffffffffffffffffffffff021916908373ffffffffffffffffffffffffffffffffffffffff160217905550565b620008b13362000509565b1515620008bd57600080fd5b620008c88162000b7e565b50565b620008d63362000509565b1515620008e257600080fd5b600260009054906101000a900460ff16151515620008ff57600080fd5b6001600260006101000a81548160ff0219169083151502179055507f62e78cea01bee320cd4e420270b5ea74000d11b0c9f74754ebdbfc544b05a25833604051808273ffffffffffffffffffffffffffffffffffffffff1673ffffffffffffffffffffffffffffffffffffffff16815260200191505060405180910390a1565b60008060009054906101000a900473ffffffffffffffffffffffffffffffffffffffff16905090565b60008060009054906101000a900473ffffffffffffffffffffffffffffffffffffffff1673ffffffffffffffffffffffffffffffffffffffff163373ffffffffffffffffffffffffffffffffffffffff1614905090565b60048181548110151562000a0f57fe5b906000526020600020016000915090505481565b60036020528060005260406000206000915054906101000a900473ffffffffffffffffffffffffffffffffffffffff1681565b62000a60620009a8565b151562000a6c57600080fd5b62000a778162000bda565b50565b60008073ffffffffffffffffffffffffffffffffffffffff168273ffffffffffffffffffffffffffffffffffffffff161415151562000ab857600080fd5b8260000160008373ffffffffffffffffffffffffffffffffffffffff1673ffffffffffffffffffffffffffffffffffffffff16815260200190815260200160002060009054906101000a900460ff16905092915050565b600080823b905060008111915050919050565b62000b3881600162000cd590919063ffffffff16565b8073ffffffffffffffffffffffffffffffffffffffff167fcd265ebaf09df2871cc7bd4133404a235ba12eff2041bb89d9c714a2621c7c7e60405160405180910390a250565b62000b9481600162000d8890919063ffffffff16565b8073ffffffffffffffffffffffffffffffffffffffff167f6719d08c1888103bea251a4ed56406bd0c3e69723c8a1686e017e7bbe159b6f860405160405180910390a250565b600073ffffffffffffffffffffffffffffffffffffffff168173ffffffffffffffffffffffffffffffffffffffff161415151562000c1757600080fd5b8073ffffffffffffffffffffffffffffffffffffffff166000809054906101000a900473ffffffffffffffffffffffffffffffffffffffff1673ffffffffffffffffffffffffffffffffffffffff167f8be0079c531659141344cd1fd0a4f28419497f9722a3daafe3b4186f6b6457e060405160405180910390a3806000806101000a81548173ffffffffffffffffffffffffffffffffffffffff021916908373ffffffffffffffffffffffffffffffffffffffff16021790555050565b600073ffffffffffffffffffffffffffffffffffffffff168173ffffffffffffffffffffffffffffffffffffffff161415151562000d1257600080fd5b62000d1e828262000a7a565b151562000d2a57600080fd5b60008260000160008373ffffffffffffffffffffffffffffffffffffffff1673ffffffffffffffffffffffffffffffffffffffff16815260200190815260200160002060006101000a81548160ff0219169083151502179055505050565b600073ffffffffffffffffffffffffffffffffffffffff168173ffffffffffffffffffffffffffffffffffffffff161415151562000dc557600080fd5b62000dd1828262000a7a565b15151562000dde57600080fd5b60018260000160008373ffffffffffffffffffffffffffffffffffffffff1673ffffffffffffffffffffffffffffffffffffffff16815260200190815260200160002060006101000a81548160ff0219169083151502179055505050565b6040516116668062000e4e83390190560060806040523480156200001157600080fd5b50604051604080620016668339810180604052810190808051906020019092919080519060200190929190505050336000806101000a81548173ffffffffffffffffffffffffffffffffffffffff021916908373ffffffffffffffffffffffffffffffffffffffff1602179055506000809054906101000a900473ffffffffffffffffffffffffffffffffffffffff1673ffffffffffffffffffffffffffffffffffffffff16600073ffffffffffffffffffffffffffffffffffffffff167f8be0079c531659141344cd1fd0a4f28419497f9722a3daafe3b4186f6b6457e060405160405180910390a3620001153362000190640100000000026401000000009004565b6000600260006101000a81548160ff02191690831515021790555080600381600019169055506200015582620001fa640100000000026401000000009004565b6200016f826200023c640100000000026401000000009004565b620001886200027f640100000000026401000000009004565b50506200069e565b620001b48160016200029b6401000000000262000edc179091906401000000009004565b8073ffffffffffffffffffffffffffffffffffffffff167f6719d08c1888103bea251a4ed56406bd0c3e69723c8a1686e017e7bbe159b6f860405160405180910390a250565b620002136200035e640100000000026401000000009004565b15156200021f57600080fd5b6200023981620003b5640100000000026401000000009004565b50565b6200025633620004b0640100000000026401000000009004565b15156200026257600080fd5b6200027c8162000190640100000000026401000000009004565b50565b6200029933620004dd640100000000026401000000009004565b565b600073ffffffffffffffffffffffffffffffffffffffff168173ffffffffffffffffffffffffffffffffffffffff1614151515620002d857600080fd5b620002f3828262000547640100000000026401000000009004565b1515156200030057600080fd5b60018260000160008373ffffffffffffffffffffffffffffffffffffffff1673ffffffffffffffffffffffffffffffffffffffff16815260200190815260200160002060006101000a81548160ff0219169083151502179055505050565b60008060009054906101000a900473ffffffffffffffffffffffffffffffffffffffff1673ffffffffffffffffffffffffffffffffffffffff163373ffffffffffffffffffffffffffffffffffffffff1614905090565b600073ffffffffffffffffffffffffffffffffffffffff168173ffffffffffffffffffffffffffffffffffffffff1614151515620003f257600080fd5b8073ffffffffffffffffffffffffffffffffffffffff166000809054906101000a900473ffffffffffffffffffffffffffffffffffffffff1673ffffffffffffffffffffffffffffffffffffffff167f8be0079c531659141344cd1fd0a4f28419497f9722a3daafe3b4186f6b6457e060405160405180910390a3806000806101000a81548173ffffffffffffffffffffffffffffffffffffffff021916908373ffffffffffffffffffffffffffffffffffffffff16021790555050565b6000620004d6826001620005476401000000000262000beb179091906401000000009004565b9050919050565b62000501816001620005dc6401000000000262000e2d179091906401000000009004565b8073ffffffffffffffffffffffffffffffffffffffff167fcd265ebaf09df2871cc7bd4133404a235ba12eff2041bb89d9c714a2621c7c7e60405160405180910390a250565b60008073ffffffffffffffffffffffffffffffffffffffff168273ffffffffffffffffffffffffffffffffffffffff16141515156200058557600080fd5b8260000160008373ffffffffffffffffffffffffffffffffffffffff1673ffffffffffffffffffffffffffffffffffffffff16815260200190815260200160002060009054906101000a900460ff16905092915050565b600073ffffffffffffffffffffffffffffffffffffffff168173ffffffffffffffffffffffffffffffffffffffff16141515156200061957600080fd5b62000634828262000547640100000000026401000000009004565b15156200064057600080fd5b60008260000160008373ffffffffffffffffffffffffffffffffffffffff1673ffffffffffffffffffffffffffffffffffffffff16815260200190815260200160002060006101000a81548160ff0219169083151502179055505050565b610fb880620006ae6000396000f3006080604052600436106100e6576000357c0100000000000000000000000000000000000000000000000000000000900463ffffffff1680633f4ba83a146100eb57806346fbf68e1461010257806352bfe7891461015d5780635c975abb146101905780636ef8d66d146101bf578063715018a6146101d657806372403613146101ed57806382dc1ec414610236578063841fb503146102795780638456cb59146102aa5780638da5cb5b146102c15780638f32d59b14610318578063b1e8eb9514610347578063be5e1acf1461037a578063c7cec7f8146103e3578063f2fde38b14610451575b600080fd5b3480156100f757600080fd5b50610100610494565b005b34801561010e57600080fd5b50610143600480360381019080803573ffffffffffffffffffffffffffffffffffffffff169060200190929190505050610543565b604051808215151515815260200191505060405180910390f35b34801561016957600080fd5b50610172610560565b60405180826000191660001916815260200191505060405180910390f35b34801561019c57600080fd5b506101a5610566565b604051808215151515815260200191505060405180910390f35b3480156101cb57600080fd5b506101d461057d565b005b3480156101e257600080fd5b506101eb610588565b005b3480156101f957600080fd5b50610234600480360381019080803560001916906020019092919080356000191690602001909291908035906020019092919050505061065a565b005b34801561024257600080fd5b50610277600480360381019080803573ffffffffffffffffffffffffffffffffffffffff169060200190929190505050610838565b005b34801561028557600080fd5b506102a86004803603810190808035600019169060200190929190505050610858565b005b3480156102b657600080fd5b506102bf6109e9565b005b3480156102cd57600080fd5b506102d6610a99565b604051808273ffffffffffffffffffffffffffffffffffffffff1673ffffffffffffffffffffffffffffffffffffffff16815260200191505060405180910390f35b34801561032457600080fd5b5061032d610ac2565b604051808215151515815260200191505060405180910390f35b34801561035357600080fd5b5061035c610b19565b60405180826000191660001916815260200191505060405180910390f35b34801561038657600080fd5b506103c96004803603810190808035600019169060200190929190803573ffffffffffffffffffffffffffffffffffffffff169060200190929190505050610b1f565b604051808215151515815260200191505060405180910390f35b3480156103ef57600080fd5b506104126004803603810190808035600019169060200190929190505050610b8f565b60405180856000191660001916815260200184600019166000191681526020018381526020018215151515815260200194505050505060405180910390f35b34801561045d57600080fd5b50610492600480360381019080803573ffffffffffffffffffffffffffffffffffffffff169060200190929190505050610bcc565b005b61049d33610543565b15156104a857600080fd5b600260009054906101000a900460ff1615156104c357600080fd5b6000600260006101000a81548160ff0219169083151502179055507f5db9ee0a495bf2e6ff9c91a7834c1ba4fdd244a5e8aa4e537bd38aeae4b073aa33604051808273ffffffffffffffffffffffffffffffffffffffff1673ffffffffffffffffffffffffffffffffffffffff16815260200191505060405180910390a1565b6000610559826001610beb90919063ffffffff16565b9050919050565b60045481565b6000600260009054906101000a900460ff16905090565b61058633610c7f565b565b610590610ac2565b151561059b57600080fd5b600073ffffffffffffffffffffffffffffffffffffffff166000809054906101000a900473ffffffffffffffffffffffffffffffffffffffff1673ffffffffffffffffffffffffffffffffffffffff167f8be0079c531659141344cd1fd0a4f28419497f9722a3daafe3b4186f6b6457e060405160405180910390a360008060006101000a81548173ffffffffffffffffffffffffffffffffffffffff021916908373ffffffffffffffffffffffffffffffffffffffff160217905550565b610662610ac2565b151561066d57600080fd5b600260009054906101000a900460ff1615151561068957600080fd5b60056000846000191660001916815260200190815260200160002060030160009054906101000a900460ff1615151561072a576040517f08c379a000000000000000000000000000000000000000000000000000000000815260040180806020018281038252601b8152602001807f546869732076657273696f6e20616c726561647920657869737473000000000081525060200191505060405180910390fd5b60806040519081016040528084600019168152602001836000191681526020018281526020016001151581525060056000856000191660001916815260200190815260200160002060008201518160000190600019169055602082015181600101906000191690556040820151816002015560608201518160030160006101000a81548160ff02191690831515021790555090505082600481600019169055507f0a13dc6f2d3e42d655d0f8d505f43607b5fe4efec05b574ae21098c0ef222a496003548484846040518085600019166000191681526020018460001916600019168152602001836000191660001916815260200182815260200194505050505060405180910390a1505050565b61084133610543565b151561084c57600080fd5b61085581610cd9565b50565b600260009054906101000a900460ff1615151561087457600080fd5b60066000826000191660001916815260200190815260200160002060003373ffffffffffffffffffffffffffffffffffffffff1673ffffffffffffffffffffffffffffffffffffffff16815260200190815260200160002060009054906101000a900460ff16151515610975576040517f08c379a00000000000000000000000000000000000000000000000000000000081526004018080602001828103825260368152602001807f596f7520616c726561647920686176652061636365737320746f20746869732081526020017f76657273696f6e206f662074686520736572766963650000000000000000000081525060400191505060405180910390fd5b600160066000836000191660001916815260200190815260200160002060003373ffffffffffffffffffffffffffffffffffffffff1673ffffffffffffffffffffffffffffffffffffffff16815260200190815260200160002060006101000a81548160ff02191690831515021790555050565b6109f233610543565b15156109fd57600080fd5b600260009054906101000a900460ff16151515610a1957600080fd5b6001600260006101000a81548160ff0219169083151502179055507f62e78cea01bee320cd4e420270b5ea74000d11b0c9f74754ebdbfc544b05a25833604051808273ffffffffffffffffffffffffffffffffffffffff1673ffffffffffffffffffffffffffffffffffffffff16815260200191505060405180910390a1565b60008060009054906101000a900473ffffffffffffffffffffffffffffffffffffffff16905090565b60008060009054906101000a900473ffffffffffffffffffffffffffffffffffffffff1673ffffffffffffffffffffffffffffffffffffffff163373ffffffffffffffffffffffffffffffffffffffff1614905090565b60035481565b600060066000846000191660001916815260200190815260200160002060008373ffffffffffffffffffffffffffffffffffffffff1673ffffffffffffffffffffffffffffffffffffffff16815260200190815260200160002060009054906101000a900460ff16905092915050565b60056020528060005260406000206000915090508060000154908060010154908060020154908060030160009054906101000a900460ff16905084565b610bd4610ac2565b1515610bdf57600080fd5b610be881610d33565b50565b60008073ffffffffffffffffffffffffffffffffffffffff168273ffffffffffffffffffffffffffffffffffffffff1614151515610c2857600080fd5b8260000160008373ffffffffffffffffffffffffffffffffffffffff1673ffffffffffffffffffffffffffffffffffffffff16815260200190815260200160002060009054906101000a900460ff16905092915050565b610c93816001610e2d90919063ffffffff16565b8073ffffffffffffffffffffffffffffffffffffffff167fcd265ebaf09df2871cc7bd4133404a235ba12eff2041bb89d9c714a2621c7c7e60405160405180910390a250565b610ced816001610edc90919063ffffffff16565b8073ffffffffffffffffffffffffffffffffffffffff167f6719d08c1888103bea251a4ed56406bd0c3e69723c8a1686e017e7bbe159b6f860405160405180910390a250565b600073ffffffffffffffffffffffffffffffffffffffff168173ffffffffffffffffffffffffffffffffffffffff1614151515610d6f57600080fd5b8073ffffffffffffffffffffffffffffffffffffffff166000809054906101000a900473ffffffffffffffffffffffffffffffffffffffff1673ffffffffffffffffffffffffffffffffffffffff167f8be0079c531659141344cd1fd0a4f28419497f9722a3daafe3b4186f6b6457e060405160405180910390a3806000806101000a81548173ffffffffffffffffffffffffffffffffffffffff021916908373ffffffffffffffffffffffffffffffffffffffff16021790555050565b600073ffffffffffffffffffffffffffffffffffffffff168173ffffffffffffffffffffffffffffffffffffffff1614151515610e6957600080fd5b610e738282610beb565b1515610e7e57600080fd5b60008260000160008373ffffffffffffffffffffffffffffffffffffffff1673ffffffffffffffffffffffffffffffffffffffff16815260200190815260200160002060006101000a81548160ff0219169083151502179055505050565b600073ffffffffffffffffffffffffffffffffffffffff168173ffffffffffffffffffffffffffffffffffffffff1614151515610f1857600080fd5b610f228282610beb565b151515610f2e57600080fd5b60018260000160008373ffffffffffffffffffffffffffffffffffffffff1673ffffffffffffffffffffffffffffffffffffffff16815260200190815260200160002060006101000a81548160ff02191690831515021790555050505600a165627a7a72305820b741fb98d4dfc6a84715d0659b91e4454336a0f0f5a62aea32bcccaff18c24d40029a165627a7a72305820df9506f86d2d3dbe13016059b7db24c087fd831cfa486e9b1e2babbfb30fc0ba0029",
  "source": "pragma solidity ^0.4.24;\n\nimport \"openzeppelin-solidity/contracts/utils/Address.sol\";\nimport \"openzeppelin-solidity/contracts/ownership/Ownable.sol\";\nimport \"openzeppelin-solidity/contracts/lifecycle/Pausable.sol\";\n\ncontract Service is Ownable, Pausable {\n    bytes32 public sid;\n    bytes32 public latest;\n    mapping (bytes32 => Version) public versions;\n    mapping (bytes32 => mapping(address => bool)) private _versionAccess;\n\n    struct Version {\n        bytes32 id;\n        bytes32 location;\n        uint256 price;\n        bool _exists;\n    }\n\n    event VersionCreated(bytes32 sid, bytes32 id, bytes32 location, uint256 price);\n\n    constructor(address creator, bytes32 _sid) Ownable() Pausable() public {\n        sid = _sid;\n        transferOwnership(creator);\n        addPauser(creator);\n        renouncePauser();\n    }\n\n    function createVersion(bytes32 versionHash, bytes32 location, uint256 price) public onlyOwner whenNotPaused {\n        require(!versions[versionHash]._exists, \"This version already exists\");\n        versions[versionHash] = Version({\n            id: versionHash,\n            location: location,\n            price: price,\n            _exists: true\n        });\n        latest = versionHash;\n        emit VersionCreated(sid, versionHash, location, price);\n        return;\n    }\n\n    function requestAccess(bytes32 version) public whenNotPaused {\n        require(!_versionAccess[version][msg.sender], \"You already have access to this version of the service\");\n        _versionAccess[version][msg.sender] = true;\n        return;\n    }\n\n    function hasAccessToVersion(bytes32 version, address user) public view returns (bool) {\n        return _versionAccess[version][user];\n    }\n}\n\ncontract Marketplace is Ownable, Pausable {\n    using Address for address;\n\n    mapping (bytes32 => address) public serviceContracts;\n    bytes32[] public services;\n    uint256 public totalServices;\n    \n    event ServiceCreated(bytes32 sid, address serviceAddress);\n\n    constructor() Ownable() Pausable() public {}\n\n    function createService(bytes32 sid) public whenNotPaused returns (address) {\n        if (serviceContracts[sid].isContract()) {\n            return;\n        }\n        serviceContracts[sid] = new Service(msg.sender, sid);\n        services.push(sid);\n        totalServices = totalServices + 1;\n        emit ServiceCreated(sid, serviceContracts[sid]);\n        return serviceContracts[sid];\n    }\n}\n",
  "sourcePath": "/Users/antho/prog/MESG/marketplace/contracts/Marketplace.sol",
  "compiler": {
    "name": "solc",
    "version": "0.4.24+commit.e67f0147.Emscripten.clang"
  },
  "schemaVersion": "3.0.0",
  "updatedAt": "2018-12-26T08:17:12.344Z",
  "devdoc": {
    "methods": {
      "isOwner()": {
        "return": "true if `msg.sender` is the owner of the contract."
      },
      "owner()": {
        "return": "the address of the owner."
      },
      "pause()": {
        "details": "called by the owner to pause, triggers stopped state"
      },
      "paused()": {
        "return": "true if the contract is paused, false otherwise."
      },
      "renounceOwnership()": {
        "details": "Allows the current owner to relinquish control of the contract."
      },
      "transferOwnership(address)": {
        "details": "Allows the current owner to transfer control of the contract to a newOwner.",
        "params": {
          "newOwner": "The address to transfer ownership to."
        }
      },
      "unpause()": {
        "details": "called by the owner to unpause, returns to normal state"
      }
    }
  },
  "userdoc": {
    "methods": {
      "renounceOwnership()": {
        "notice": "Renouncing to ownership will leave the contract without an owner. It will not be possible to call the functions with the `onlyOwner` modifier anymore."
      }
    }
  }
}